:100000000C9462000C948A000C948A000C948A0070
:100010000C948A000C948A000C948A000C948A0038
:100020000C948A000C948A000C948A000C948A0028
:100030000C948A000C948A000C948A000C948A0018
:100040000C944A050C948A000C9402020C9434021D
:100050000C948A000C948A000C948A000C948A00F8
:100060000C948A000C948A00000000080002010031
:100070000003040700000000000000000102040863
:100080001020408001020408102001020408102002
:10009000040404040404040402020202020203032E
:1000A00003030303000000002300260029000000D2
:1000B0000000250028002B0000000000240027007D
:1000C0002A00290711241FBECFEFD8E0DEBFCDBF25
:1000D00011E0A0E0B1E0E6E9F3E102C005900D9285
:1000E000AE32B107D9F721E0AEE2B1E001C01D9216
:1000F000A43DB207E1F710E0C4ECD0E004C02297C1
:10010000FE010E94A607C23CD107C9F70E9405075D
:100110000C94C9090C940000FC01818D228D90E0A3
:10012000805C9F4F821B91098F7399270895FC0172
:10013000918D828D981731F0828DE80FF11D858D9C
:1001400090E008958FEF9FEF0895FC01918D828DCF
:10015000981761F0828DDF01A80FB11D5D968C911B
:10016000928D9F5F9F73928F90E008958FEF9FEF26
:1001700008958AE592E0892B49F080E090E0892B90
:1001800029F00E945A0281110C9400000895FC018C
:10019000848DDF01A80FB11DA35ABF4F2C91848D10
:1001A00090E001968F739927848FA689B7892C9345
:1001B000A089B1898C9180648C93938D848D9813E0
:1001C00006C00288F389E02D80818F7D80830895A9
:1001D000CF93DF93EC01888D8823C9F0EA89FB89EE
:1001E000808185FD05C0A889B9898C9186FD0FC0E5
:1001F0000FB607FCF5CF808185FFF2CFA889B989BA
:100200008C9185FFEDCFCE010E94C700E7CFDF9133
:10021000CF910895CF92DF92FF920F931F93CF93C8
:10022000DF931F92CDB7DEB76C0181E0D6015896FF
:100230008C9358975B969C915B975C968C915C979E
:10024000981307C05096ED91FC915197808185FDE0
:100250002EC0F601038D10E00F5F1F4F0F731127A3
:10026000F02EF601848DF81211C00FB607FCF9CFFD
:10027000D6015096ED91FC915197808185FFF1CF89
:10028000C60169830E94C7006981EBCF838DE80FA7
:10029000F11DE35AFF4F6083D6015B960C935B9789
:1002A0005296ED91FC915397808180620CC0D601EB
:1002B0005696ED91FC91579760835096ED91FC9185
:1002C000519780818064808381E090E00F90DF917E
:1002D000CF911F910F91FF90DF90CF900895BF9223
:1002E000CF92DF92EF92FF92CF93DF93EC016A01FE
:1002F0007B01B22EE889F98982E08083411581EE85
:10030000580761057105A1F060E079E08DE390E0A8
:10031000A70196010E948207215031094109510924
:100320005695479537952795211580E1380798F020
:10033000E889F989108260E874E88EE190E0A7010D
:1003400096010E94820721503109410951095695B1
:10035000479537952795EC85FD853083EE85FF859C
:100360002083188EEC89FD89B082EA89FB8980811F
:1003700080618083EA89FB89808188608083EA8943
:10038000FB89808180688083EA89FB8980818F7DF9
:100390008083DF91CF91FF90EF90DF90CF90BF905F
:1003A0000895CF93DF93EC01E881F9810284F3850E
:1003B000E02D0995EA89FB8980818F7E8083EA8917
:1003C000FB898081877F8083EA89FB8980818F77A1
:1003D0008083EA89FB8980818F7D80838A8D898FE4
:1003E000DF91CF910895FC01538D448D252F30E08E
:1003F000842F90E0821B930B541710F0CF96089532
:10040000019708951F920F920FB60F9211242F9308
:100410008F939F93EF93FF93E0913E01F0913F0103
:100420008081E0914401F091450182FD12C09081EC
:10043000809147018F5F8F7320914801821751F09F
:10044000E0914701F0E0E25DFE4F958F8093470118
:1004500001C08081FF91EF919F918F912F910F901B
:100460000FBE0F901F9018951F920F920FB60F920C
:1004700011242F933F934F935F936F937F938F93A9
:100480009F93AF93BF93EF93FF938EE291E00E940F
:10049000C700FF91EF91BF91AF919F918F917F9195
:1004A0006F915F914F913F912F910F900FBE0F90E1
:1004B0001F9018958EE291E00E948C0021E0892B1C
:1004C00009F420E0822F0895CF92DF92EF92FF92FD
:1004D0000F931F93CF93DF937C016A01EB0100E040
:1004E00010E00C151D0571F06991D701ED91FC919B
:1004F0000190F081E02DC7010995892B19F00F5F5C
:100500001F4FEFCFC801DF91CF911F910F91FF9047
:10051000EF90DF90CF900895DC01ED91FC91019078
:10052000F081E02D642F0994EF92FF920F931F93B7
:10053000CF93DF938C017B01C0E0D0E0F701EC0F9B
:10054000FD1F6491662359F0F801A081B181ED91FE
:10055000FC91C8010995892B11F02196EFCFCE01AE
:10056000DF91CF911F910F91FF90EF900895DC01E3
:10057000ED91FC91DB0114964D915C9115976D9175
:100580007C910280F381E02D09940C946C07DC01CE
:10059000ED91FC910190F081E02D0994DB01ED914A
:1005A000FC9111970190F081E02DBC01CD010994DF
:1005B00064E171E00C946C070F931F93CF93DF936A
:1005C000EC010E9494028C01CE010E94D802800F9F
:1005D000911FDF91CF911F910F9108950F931F935A
:1005E000CF93DF93EC010E94B7028C01CE010E94F1
:1005F000D802800F911FDF91CF911F910F91089525
:100600000F931F93CF93DF93EC010E946C078C0133
:10061000CE010E94D802800F911FDF91CF911F91D0
:100620000F9108950F931F93CF93DF93EC010E94D6
:10063000C7028C01CE010E94D802800F911FDF916A
:10064000CF911F910F9108950F931F93CF93DF9335
:10065000EC010E94CE028C01CE010E94D802800FD4
:10066000911FDF91CF911F910F9108958F929F92CB
:10067000AF92BF92DF92EF92FF920F931F93CF93AF
:10068000DF93CDB7DEB7A1970FB6F894DEBF0FBEEC
:10069000CDBF7C01F42FD52ECB0119A2223008F456
:1006A0002AE08E010F5D1F4F822E912CA12CB12CC0
:1006B0006F2F7D2DA50194010E948207F22FD32E6A
:1006C000CA01015011096A3014F4E0E301C0E7E304
:1006D000E60FD801EC93232B242B252B49F7B801E7
:1006E000C7010E946C07A1960FB6F894DEBF0FBE3B
:1006F000CDBFDF91CF911F910F91FF90EF90DF90D1
:10070000BF90AF909F908F900895CF92DF92EF921D
:10071000FF920F931F93CF93DF93EC016A017B014C
:100720002115310579F4E881F9810190F081E02DFE
:10073000642FDF91CF911F910F91FF90EF90DF9089
:10074000CF9009942A303105E9F477FF1AC06DE2A1
:100750000E94C7028C0144275527BA014C195D0934
:100760006E097F092AE0CE010E943603800F911F97
:10077000DF91CF911F910F91FF90EF90DF90CF907D
:1007800008952AE0B701A601CE01DF91CF911F9114
:100790000F91FF90EF90DF90CF900C9436039A0169
:1007A000AB01662757FD6095762F0C9485030F9358
:1007B0001F93CF93DF93EC019A01AB01662757FD9E
:1007C0006095762F0E9485038C01CE010E94D8028D
:1007D000800F911FDF91CF911F910F9108950F937B
:1007E0001F93CF93DF93EC010E9485038C01CE0110
:1007F0000E94D802800F911FDF91CF911F910F911E
:1008000008952115310511F40C948C020C943603D3
:100810009A01462F50E060E070E00C9401040F93C1
:100820001F93CF93DF93EC019A01462F50E060E0D5
:1008300070E00E9401048C01CE010E94D802800F5A
:10084000911FDF91CF911F910F9108959A01AB01F4
:1008500060E070E00C9401040F931F93CF93DF933B
:10086000EC019A01AB0160E070E00E9401048C0190
:10087000CE010E94D802800F911FDF91CF911F916E
:100880000F9108950F931F93CF93DF93EC010E9474
:1008900001048C01CE010E94D802800F911FDF91CC
:1008A000CF911F910F9108954F925F926F927F9217
:1008B000BF92CF92DF92EF92FF920F931F93CF934D
:1008C000DF93EC016A017B01B22E9A01AB01C701F3
:1008D000B6010E94C009882319F067E171E027C0C2
:1008E00026013701E89477F82FEF3FEF4FE75FE7F6
:1008F000C301B2010E94C00981110DC02FEF3FEF6B
:100900004FE75FE7C301B2010E940F0818161CF4FD
:100910006BE171E00CC02FEF3FEF4FE75FE4C701E1
:10092000B6010E945909181694F46FE171E0CE01E6
:10093000DF91CF911F910F91FF90EF90DF90CF90BB
:10094000BF907F906F905F904F900C946C072FEF4B
:100950003FEF4FE75FECC701B6010E940F0887FD2C
:10096000E4CF20E030E0A901C701B6010E940F08E2
:1009700087FF0AC06DE2CE010E94C7028C01F7FA20
:10098000F094F7F8F09402C000E010E0712C60E001
:1009900070E080E09FE37B1441F020E030E040E233
:1009A00051E40E9413087394F6CF9B01AC01C70178
:1009B000B6010E94AB076B017C010E947B082B01F2
:1009C0003C010E94A7089B01AC01C701B6010E942F
:1009D000AA076B017C012AE0B301A201CE010E94AB
:1009E0003603080F191FBB2039F063E271E0CE0116
:1009F0000E946C07080F191FBB2029F120E030E08E
:100A000040E251E4C701B6010E945D096B017C011F
:100A10000E947B082B01612C712C2AE0B301A201FA
:100A2000CE010E943603080F191FC301B2010E94B4
:100A3000A7089B01AC01C701B6010E94AA076B0180
:100A40007C01BA94D9CFC801DF91CF911F910F914A
:100A5000FF90EF90DF90CF90BF907F906F905F906E
:100A60004F9008950C9454040F931F93CF93DF93EA
:100A7000EC010E9454048C01CE010E94D802800F28
:100A8000911FDF91CF911F910F9108950E94C4098A
:100A90000E94C4091F920F920FB60F9211242F9338
:100AA0003F938F939F93AF93BF938091CB0190918E
:100AB000CC01A091CD01B091CE013091D30123E0C2
:100AC000230F2D3720F40196A11DB11D05C026E886
:100AD000230F0296A11DB11D2093D3018093CB015A
:100AE0009093CC01A093CD01B093CE018091CF0122
:100AF0009091D001A091D101B091D2010196A11D98
:100B0000B11D8093CF019093D001A093D101B093F8
:100B1000D201BF91AF919F918F913F912F910F90F3
:100B20000FBE0F901F9018952FB7F8946091CB01CE
:100B30007091CC018091CD019091CE012FBF08958D
:100B40003FB7F8948091CF019091D001A091D1014D
:100B5000B091D20126B5A89B05C02F3F19F0019690
:100B6000A11DB11D3FBF6627782F892F9A2F620FD5
:100B7000711D811D911D42E0660F771F881F991F0F
:100B80004A95D1F708958F929F92AF92BF92CF92DC
:100B9000DF92EF92FF926B017C010E94A0054B0156
:100BA0005C01C114D104E104F104F1F00E940407D6
:100BB0000E94A005681979098A099B09683E73405B
:100BC0008105910570F321E0C21AD108E108F1080E
:100BD00088EE880E83E0981EA11CB11CC114D104BC
:100BE000E104F10429F7DDCFFF90EF90DF90CF9083
:100BF000BF90AF909F908F9008958230910538F00C
:100C0000880F991F880F991F05970197F1F708958D
:100C1000789484B5826084BD84B5816084BD85B5D7
:100C2000826085BD85B5816085BDEEE6F0E080819E
:100C300081608083E1E8F0E01082808182608083BF
:100C4000808181608083E0E8F0E080818160808342
:100C5000E1EBF0E0808184608083E0EBF0E0808174
:100C600081608083EAE7F0E0808184608083808116
:100C700082608083808181608083808180688083BE
:100C80001092C1000895833081F028F4813099F0EA
:100C90008230A1F008958730A9F08830B9F084300F
:100CA000D1F4809180008F7D03C0809180008F7788
:100CB00080938000089584B58F7702C084B58F7DBE
:100CC00084BD08958091B0008F7703C08091B000FB
:100CD0008F7D8093B0000895CF93DF9390E0FC0167
:100CE000E458FF4F2491FC01E057FF4F8491882383
:100CF00049F190E0880F991FFC01E854FF4FA5913E
:100D0000B49182559F4FFC01C591D4919FB7611159
:100D100008C0F8948C91209582238C93888182233B
:100D20000AC0623051F4F8948C91322F30958323AD
:100D30008C938881822B888304C0F8948C91822BB9
:100D40008C939FBFDF91CF9108950F931F93CF9303
:100D5000DF931F92CDB7DEB7282F30E0F901E859B5
:100D6000FF4F8491F901E458FF4F1491F901E057C6
:100D7000FF4F04910023C9F0882321F069830E946A
:100D800043066981E02FF0E0EE0FFF1FE255FF4FB1
:100D9000A591B4919FB7F8948C91611103C01095FF
:100DA000812301C0812B8C939FBF0F90DF91CF9146
:100DB0001F910F910895CF93DF93282F30E0F90111
:100DC000E859FF4F8491F901E458FF4FD491F9019C
:100DD000E057FF4FC491CC2391F081110E9443064C
:100DE000EC2FF0E0EE0FFF1FEC55FF4FA591B491F3
:100DF0002C912D2381E090E021F480E002C080E07E
:100E000090E0DF91CF91089508950E94080626E0B2
:100E100040E855E260E070E08EE291E00E946F01F0
:100E200061E08DE00E946C06C1E0D0E060E071E01E
:100E30008EE291E00E9400036C2F8DE00E94A506D7
:100E400081E0C82760EA7FE080E090E00E94C3056F
:100E5000EDCF109231011092300188EE93E0A0E0C6
:100E6000B0E08093320190933301A0933401B093AA
:100E7000350188E091E090932F0180932E0185EC5D
:100E800090E090933B0180933A0184EC90E0909342
:100E90003D0180933C0180EC90E090933F01809372
:100EA0003E0181EC90E0909341018093400182ECFF
:100EB00090E0909343018093420186EC90E0909300
:100EC000450180934401109247011092480110920D
:100ED000490110924A0108956115710581F0DB0105
:100EE0000D900020E9F7AD0141505109461B570B09
:100EF000DC01ED91FC910280F381E02D099480E00A
:100F000090E00895A1E21A2EAA1BBB1BFD010DC0A3
:100F1000AA1FBB1FEE1FFF1FA217B307E407F507A9
:100F200020F0A21BB30BE40BF50B661F771F881F85
:100F3000991F1A9469F760957095809590959B011B
:100F4000AC01BD01CF010895EE0FFF1F0590F49194
:100F5000E02D09945058BB27AA270ED070C161D14B
:100F600030F066D120F031F49F3F11F41EF456C1E9
:100F70000EF4E095E7FB4CC1E92F72D180F3BA176C
:100F8000620773078407950718F071F49EF58AC10C
:100F90000EF4E0950B2EBA2FA02D0B01B901900194
:100FA0000C01CA01A0011124FF27591B99F0593FD8
:100FB00050F4503E68F11A16F040A22F232F342F20
:100FC0004427585FF3CF469537952795A795F0406E
:100FD0005395C9F77EF41F16BA0B620B730B840B83
:100FE000BAF09150A1F0FF0FBB1F661F771F881F3B
:100FF000C2F70EC0BA0F621F731F841F48F4879593
:1010000077956795B795F7959E3F08F0B3CF939581
:10101000880F08F09927EE0F979587950895D4D0FB
:1010200008F481E008950CD00AC102D140F0F9D053
:1010300030F021F45F3F19F0EBC0511134C1EEC024
:101040000FD198F39923C9F35523B1F3951B550B91
:10105000BB27AA2762177307840738F09F5F5F4F8B
:10106000220F331F441FAA1FA9F333D00E2E3AF0CC
:10107000E0E830D091505040E695001CCAF729D0E6
:10108000FE2F27D0660F771F881FBB1F2617370735
:101090004807AB07B0E809F0BB0B802DBF01FF2765
:1010A00093585F4F2AF09E3F510568F0B1C0FBC0D6
:1010B0005F3FECF3983EDCF3869577956795B7959F
:1010C000F7959F5FC9F7880F911D9695879597F9BA
:1010D0000895E1E0660F771F881FBB1F6217730733
:1010E0008407BA0720F0621B730B840BBA0BEE1F48
:1010F00088F7E0950895BCD088F09F5790F0B92FFD
:101100009927B751A0F0D1F0660F771F881F991F5C
:101110001AF0BA95C9F712C0B13081F0C3D0B1E06E
:101120000895C0C0672F782F8827B85F39F0B93F7E
:10113000CCF3869577956795B395D9F73EF490955E
:101140008095709561957F4F8F4F9F4F0895E894DC
:1011500009C097FB3EF490958095709561957F4FFF
:101160008F4F9F4F9923A9F0F92F96E9BB279395AD
:10117000F695879577956795B795F111F8CFFAF4BD
:10118000BB0F11F460FF1BC06F5F7F4F8F4F9F4FEE
:1011900016C0882311F096E911C0772321F09EE84C
:1011A000872F762F05C0662371F096E8862F70E0B2
:1011B00060E02AF09A95660F771F881FDAF7880F8C
:1011C0009695879597F90895990F0008550FAA0BE2
:1011D000E0E8FEEF16161706E807F907C0F012164A
:1011E0001306E407F50798F0621B730B840B950B4D
:1011F00039F40A2661F0232B242B252B21F40895A2
:101200000A2609F4A140A6958FEF811D811D08953E
:1012100097F99F6780E870E060E008959FEF80ECA9
:10122000089500240A94161617061806090608954C
:1012300000240A9412161306140605060895092EB2
:101240000394000C11F4882352F0BB0F40F4BF2B21
:1012500011F460FF04C06F5F7F4F8F4F9F4F089561
:1012600057FD9058440F551F59F05F3F71F0479557
:10127000880F97FB991F61F09F3F79F0879508953C
:10128000121613061406551FF2CF4695F1DF08C05B
:10129000161617061806991FF1CF86957105610578
:1012A00008940895E894BB2766277727CB0197F920
:1012B00008958ADF08F48FEF08950BD0C0CFB1DF17
:1012C00028F0B6DF18F0952309F0A2CFA7CF11249C
:1012D000EACFC6DFA0F3959FD1F3950F50E0551FDD
:1012E000629FF001729FBB27F00DB11D639FAA277B
:1012F000F00DB11DAA1F649F6627B00DA11D661FCA
:10130000829F2227B00DA11D621F739FB00DA11DEA
:10131000621F839FA00D611D221F749F3327A00DA4
:10132000611D231F849F600D211D822F762F6A2F40
:1013300011249F5750408AF0E1F088234AF0EE0FC5
:10134000FF1FBB1F661F771F881F91505040A9F7D2
:101350009E3F510570F05CCFA6CF5F3FECF3983E07
:10136000DCF3869577956795B795F795E7959F5F39
:10137000C1F7FE2B880F911D9695879597F90895D3
:1013800023DF880B990B089581E090E0F8940C948A
:06139000C909F894FFCF2B
:1013960053757000000000000A0164028C00A5006D
:1013A6009700E8000D0A006E616E00696E66006FB8
:0E13B6007666002E000000000046056402006E
:00000001FF
